:100000000C94B5000C94D2000C94D2000C94D20045
:100010000C94D2000C94D2000C94D2000C94D20018
:100020000C94D2000C9426030C94D2000C94D200B1
:100030000C94D2000C94D2000C94D2040C94D200F4
:100040000C94D2000C94D2000C94D2000C94D200E8
:100050000C94D2000C944F040C94D2000C94D20057
:100060000C94D2000C94D2006E616E00696E660032
:1000700000407A10F35A00A0724E18090010A5D45F
:10008000E80000E87648170000E40B54020000CABC
:100090009A3B000000E1F505000080969800000002
:1000A00040420F000000A086010000001027000061
:1000B0000000E803000000006400000000000A00E7
:1000C000000000000100000000002C76D888DC67EA
:1000D0004F0823DFC1DFAE59E1B1B796E5E3E45342
:1000E000C63AE651997696E8E6C28426EB898C9B5F
:1000F00062ED407C6FFCEFBC9C9F40F2BAA56FA5FF
:10010000F490055A2AF75C936B6CF9676DC11BFC80
:10011000E0E40D47FEF520E6B500D0ED902E03009B
:10012000943577050080841E080000204E0A0000E8
:1001300000C80C333333330F986E12831141EF8DA7
:100140002114893BE65516CFFEE6DB18D1844B38E7
:100150001BF77C1D901DA4BBE424203284725E2218
:100160008100C9F124ECA1E53D2711241FBECFEF8A
:10017000D8E0DEBFCDBF11E0A0E0B1E0E4E4FAE1F9
:1001800002C005900D92A034B107D9F721E0A0E498
:10019000B1E001C01D92A236B207E1F70E940D0541
:1001A0000C94200D0C940000672B09F099C0009767
:1001B00021F485B18E7F85B908958130910521F4B0
:1001C00085B18D7F85B908958230910521F485B17F
:1001D0008B7F85B908958330910521F485B1877FA0
:1001E00085B908958430910521F485B18F7E85B954
:1001F00008958530910521F485B18F7D85B90895E5
:100200008031910521F485B18F7B85B908958131C5
:10021000910521F485B18F7785B9089584319105D1
:1002200021F488B18E7F88B908958531910521F434
:1002300088B18D7F88B908958631910521F488B100
:100240008B7F88B908958731910521F488B1877F24
:1002500088B908958831910521F488B18F7E88B9D5
:1002600008958931910521F488B18F7D88B9089569
:100270008E31910521F48BB18E7F8BB908958F312A
:10028000910521F48BB18D7F8BB908958032910552
:1002900021F48BB18B7F8BB908958132910521F4C4
:1002A0008BB1877F8BB908958232910521F48BB190
:1002B0008F7E8BB908958332910521F48BB18F7DA8
:1002C0008BB908958432910521F48BB18F7B8BB962
:1002D0000895859709F09BC08BB18F778BB90895EE
:1002E000009721F485B1816085B908958130910529
:1002F00021F485B1826085B908958230910521F499
:1003000085B1846085B908958330910521F485B164
:10031000886085B908958430910521F485B18061A4
:1003200085B908958530910521F485B1806285B93C
:1003300008958031910521F485B1806485B90895CF
:100340008131910521F485B1806885B908958431A2
:10035000910521F488B1816088B9089585319105AE
:1003600021F488B1826088B908958631910521F41D
:1003700088B1846088B908958731910521F488B1E6
:10038000886088B908958831910521F488B1806129
:1003900088B908958931910521F488B1806288B9BE
:1003A00008958E31910521F48BB181608BB9089548
:1003B0008F31910521F48BB182608BB90895803221
:1003C000910521F48BB184608BB908958132910538
:1003D00021F48BB188608BB908958232910521F4A4
:1003E0008BB180618BB908958332910521F48BB173
:1003F00080628BB908958432910521F48BB18064B9
:100400008BB90895859719F48BB180688BB90895DD
:10041000CF93C82F80FF07C061E070E082E090E0DA
:100420000E94D40006C060E070E082E090E00E948C
:10043000D400C1FF07C061E070E083E090E00E945B
:10044000D40006C060E070E083E090E00E94D40039
:10045000C2FF07C061E070E084E090E00E94D40039
:1004600006C060E070E084E090E00E94D400C3FF2A
:1004700007C061E070E085E090E00E94D40006C013
:1004800060E070E085E090E00E94D400CF91089594
:10049000CF93C82F60E070E080E090E00E94D4002D
:1004A0008C2F0E94080261E070E081E090E00E94E1
:1004B000D4008FE99FE00197F1F700C0000060E0F1
:1004C00070E081E090E00E94D4008FE99FE0019706
:1004D000F1F700C00000CF91089580E00E9448022B
:1004E00081E00E9448020895CF93813061F480E852
:1004F000860FC62FCF7082958F700E9448028C2F76
:100500000E9448020DC0823059F480EC860FC62F3D
:10051000CF7082958F700E9448028C2F0E944802F3
:10052000CF91089580E00E9408022FEF89EF90E0BC
:10053000215080409040E1F700C0000083E00E941D
:1005400048028FE19EE40197F1F700C0000083E0CC
:100550000E9448028FED9BEA0197F1F700C000006E
:1005600083E00E94480282E00E94480282E00E94EA
:10057000480288E00E94480280E00E9448028CE025
:100580000E94480280E00E94480286E00E944802E1
:100590000895CF93DF93D82FDF70C82FC07F61E01D
:1005A00070E080E090E00E94D4008C2F82958F70E4
:1005B0000E94080261E070E081E090E00E94D400B7
:1005C0008FE99FE00197F1F700C0000060E070E064
:1005D00081E090E00E94D4008FE99FE00197F1F75D
:1005E00000C000008D2F0E94080261E070E081E0F1
:1005F00090E00E94D4008FE99FE00197F1F700C0DE
:10060000000060E070E081E090E00E94D4008FE99B
:100610009FE00197F1F700C00000DF91CF910895AE
:100620000F931F93CF93DF938C01C0E0D0E003C002
:100630000E94C9022196F801EC0FFD1F80818111F3
:10064000F7CFDF91CF911F910F9108951F920F92D5
:100650000FB60F921124CF92DF92EF92FF922F9359
:100660003F934F935F936F937F938F939F93AF933A
:10067000BF93EF93FF9389B18695817090E0282F07
:10068000392F80930A0190930B0180910C01909176
:100690000D01009749F02115310531F041E050E09E
:1006A0005093090140930801232BC9F4892BB9F019
:1006B0008091000190910101892B41F0109201017C
:1006C0001092000184B58F7D84BD09C084B580621D
:1006D00084BD81E090E090930101809300018091BE
:1006E0000A0190910B0190930D0180930C0189B147
:1006F00082FB882780F990E0282F392F809304010E
:100700009093050140910601509107014115510553
:1007100049F02115310531F061E070E0709303017B
:1007200060930201232B81F4452B71F021E030E02E
:1007300040914C0150914D01452B11F020E030E0EB
:1007400030934D0120934C01809306019093070153
:1007500020914C0130914D01809100019091010157
:1007600082239323892B09F465C0809140019091E5
:1007700041010196909341018093400160914001B5
:1007800070914101072E000C880B990B0E94A00666
:100790006B017C01609148017091490180914A018F
:1007A00090914B0120E030E040E05FE30E9455076C
:1007B00020E030E04AE754E40E94550722E538EB98
:1007C0004EE55FE30E9455079B01AC01C701B601EE
:1007D0000E94F105181624F084B5806284BD03C020
:1007E00084B58F7D84BD6091400170914101072ED9
:1007F000000C880B990B0E94A0066B017C01609194
:1008000048017091490180914A0190914B0120E08B
:1008100030E04AE754E40E9455079B01AC01C70150
:10082000B6010E94500788234CF0109241011092AB
:10083000400104C0109241011092400160914601B4
:1008400070914701072E000C880B990B0E94A0069F
:1008500020E030E048EC52E40E94F60520E030E071
:1008600044EA52E40E9455070E946F0668BD86E084
:100870008093B200FF91EF91BF91AF919F918F91C3
:100880007F916F915F914F913F912F91FF90EF90EA
:10089000DF90CF900F900FBE0F901F9018951F9272
:1008A0000F920FB60F9211242F933F934F935F93A4
:1008B0006F937F938F939F93AF93BF93EF93FF9328
:1008C0008091780090917900909345018093440144
:1008D0008091420190914301892B21F5609144015F
:1008E00070914501072E000C880B990B0E94A00601
:1008F00029E034E240E15CE30E94550720E030E06B
:1009000040E85FE30E9485056093480170934901C8
:1009100080934A0190934B01ECE7F0E08081816085
:10092000808321C06091440170914501072E000C25
:10093000880B990B0E94A0062BE83AE24AEA5DE395
:100940000E94550720E030E040E251E40E94850516
:100950000E9468067093470160934601ECE7F0E05F
:1009600080818E7F8083209142013091430181E01C
:1009700090E0232B11F080E090E09093430180936E
:100980004201FF91EF91BF91AF919F918F917F9124
:100990006F915F914F913F912F910F900FBE0F90EC
:1009A0001F9018951F920F920FB60F9211248F93DC
:1009B0009F939BB181E089278BB99F918F910F9075
:1009C0000FBE0F901F90189589EF8AB98FEF84B9E9
:1009D00017B8089583E284BD8BE085BD82E587BDAD
:1009E0008DE488BD82E080936E001092B00084E0B8
:1009F0008093B10081E08093700086E08093B20024
:100A0000089583E080937E0090E490937C0080932F
:100A10007B008FEE80937A0008950E94E4040E9488
:100A2000EA040E94010578940E9492020E946D02DD
:100A300060E081E00E94740280914C0190914D0130
:100A4000892BA9F08EE091E09F938F9389E191E04B
:100A50009F938F938EE491E09F938F930E94A00CBD
:100A60000F900F900F900F900F900F9014C082E294
:100A700091E09F938F9389E191E09F938F938EE410
:100A800091E09F938F930E94A00C0F900F900F9076
:100A90000F900F900F908EE491E00E94100368E099
:100AA00082E00E9474028BE291E00E94100360E0F9
:100AB00082E00E94740220914601309147018091AA
:100AC000480190914901A0914A01B0914B013F9397
:100AD0002F93BF93AF939F938F938DE291E09F935A
:100AE0008F938EE491E09F938F930E94A00C8EE4ED
:100AF00091E00E9410038DB79EB70A960FB6F89446
:100B00009EBF0FBE8DBF94CF5058BB27AA270E940F
:100B10009C050C9416070E94080738F00E940F07E6
:100B200020F039F49F3F19F426F40C9405070EF4D5
:100B3000E095E7FB0C94FF06E92F0E94270758F386
:100B4000BA17620773078407950720F079F4A6F5B2
:100B50000C9449070EF4E0950B2EBA2FA02D0B0133
:100B6000B90190010C01CA01A0011124FF27591BF2
:100B700099F0593F50F4503E68F11A16F040A22FF8
:100B8000232F342F4427585FF3CF46953795279569
:100B9000A795F0405395C9F77EF41F16BA0B620B68
:100BA000730B840BBAF09150A1F0FF0FBB1F661FAF
:100BB000771F881FC2F70EC0BA0F621F731F841FF2
:100BC00048F4879577956795B795F7959E3F08F018
:100BD000B0CF9395880F08F09927EE0F97958795DA
:100BE00008950E94DB0608F481E008950E940A0639
:100BF0000C9416070E940F0758F00E94080740F057
:100C000029F45F3F29F00C94FF0651110C944A0718
:100C10000C9405070E94270768F39923B1F3552325
:100C200091F3951B550BBB27AA27621773078407FF
:100C300038F09F5F5F4F220F331F441FAA1FA9F395
:100C400035D00E2E3AF0E0E832D091505040E69583
:100C5000001CCAF72BD0FE2F29D0660F771F881FE4
:100C6000BB1F261737074807AB07B0E809F0BB0BD7
:100C7000802DBF01FF2793585F4F3AF09E3F5105EB
:100C800078F00C94FF060C944A075F3FE4F3983E1B
:100C9000D4F3869577956795B795F7959F5FC9F7D4
:100CA000880F911D9695879597F90895E1E0660F55
:100CB000771F881FBB1F621773078407BA0720F0CE
:100CC000621B730B840BBA0BEE1F88F7E095089537
:100CD0000E946F066894B1110C944A0708950E940F
:100CE0002F0788F09F5798F0B92F9927B751B0F088
:100CF000E1F0660F771F881F991F1AF0BA95C9F7A0
:100D000014C0B13091F00E944907B1E008950C94ED
:100D10004907672F782F8827B85F39F0B93FCCF3A0
:100D2000869577956795B395D9F73EF4909580951C
:100D3000709561957F4F8F4F9F4F0895E89409C03C
:100D400097FB3EF490958095709561957F4F8F4FFE
:100D50009F4F9923A9F0F92F96E9BB279395F69514
:100D6000879577956795B795F111F8CFFAF4BB0F92
:100D700011F460FF1BC06F5F7F4F8F4F9F4F16C0F6
:100D8000882311F096E911C0772321F09EE8872F80
:100D9000762F05C0662371F096E8862F70E060E03C
:100DA0002AF09A95660F771F881FDAF7880F9695B5
:100DB000879597F90895990F0008550FAA0BE0E859
:100DC000FEEF16161706E807F907C0F0121613060D
:100DD000E407F50798F0621B730B840B950B39F44D
:100DE0000A2661F0232B242B252B21F408950A26B3
:100DF00009F4A140A6958FEF811D811D089597F9F3
:100E00009F6780E870E060E008959FEF80EC0895B0
:100E100000240A94161617061806090608950024D9
:100E20000A9412161306140605060895092E039453
:100E3000000C11F4882352F0BB0F40F4BF2B11F4C7
:100E400060FF04C06F5F7F4F8F4F9F4F089557FD26
:100E50009058440F551F59F05F3F71F04795880F28
:100E600097FB991F61F09F3F79F0879508951216BF
:100E700013061406551FF2CF4695F1DF08C016166B
:100E800017061806991FF1CF86957105610508941C
:100E90000895E894BB2766277727CB0197F9089533
:100EA0000E94DB0608F48FEF08950E9468070C94F7
:100EB00016070E94080738F00E940F0720F09523BC
:100EC00011F00C94FF060C94050711240C944A07AA
:100ED0000E94270770F3959FC1F3950F50E0551FAF
:100EE000629FF001729FBB27F00DB11D639FAA277F
:100EF000F00DB11DAA1F649F6627B00DA11D661FCE
:100F0000829F2227B00DA11D621F739FB00DA11DEE
:100F1000621F839FA00D611D221F749F3327A00DA8
:100F2000611D231F849F600D211D822F762F6A2F44
:100F300011249F5750409AF0F1F088234AF0EE0FA9
:100F4000FF1FBB1F661F771F881F91505040A9F7D6
:100F50009E3F510580F00C94FF060C944A075F3FBA
:100F6000E4F3983ED4F3869577956795B795F79512
:100F7000E7959F5FC1F7FE2B880F911D969587958A
:100F800097F90895A0E1B0E0E8ECF7E00C943F0B8E
:100F90007C011B016A01FC0117821682838181FF9B
:100FA00044C39E012F5F3F4F3901F7019381F10147
:100FB00093FD859193FF81911F01882309F431C32B
:100FC000853239F493FD859193FF81911F0185321C
:100FD00039F4B70190E00E94640C56016501E5CF39
:100FE00010E0512C912CFFE1F915D8F08B3279F0FB
:100FF00038F4803279F08332A1F4F92DF0612EC0FB
:101000008D3261F0803369F4292D21602DC0392D96
:101010003260932E892D8460982E2AC0E92DE860D5
:1010200015C097FC2DC020ED280F2A3088F496FEBD
:1010300006C03AE0139F200D1124122F19C08AE038
:10104000589E200D1124522EE92DE0629E2E10C0D4
:101050008E3231F496FCE5C2F92DF0649F2E08C063
:101060008C3621F4292D2068922E02C0883641F456
:10107000F10193FD859193FF81911F018111B3CF00
:101080009BEB980F933020F4992D9061805E07C000
:101090009BE9980F933008F066C1992D9F7E96FFCB
:1010A00016E09F73992E853619F49064992E08C026
:1010B000863621F4392F3068932E02C01111115059
:1010C00097FE07C01C3350F444244394410E27E09C
:1010D0000BC0183038F027E017E005C027E09CE38C
:1010E000492E02C0212F412C560184E0A80EB11CCC
:1010F000F6016081718182819381042DA3010E9498
:10110000760B6C01F981FC87F0FF02C0F3FF06C08B
:1011100091FC06C092FE06C000E205C00DE203C0CD
:101120000BE201C000E08C858C7019F001115AC2ED
:101130009BC297FE10C04C0CFC85F4FF04C08A8152
:10114000813309F44A94141474F528E0241578F5D1
:1011500088E0482E2CC096FC2AC0812F90E08C1588
:101160009D059CF03CEFC3163FEFD30674F0892D2C
:101170008068982E0AC0E2E0F0E0EC0FFD1FE10F5E
:10118000F11D8081803319F411501111F4CF97FEB5
:101190000EC044244394410E812F90E0C816D90616
:1011A0002CF41C1904C04424439401C010E097FEA1
:1011B00006C01C141D0434F4C601019605C085E068
:1011C00090E002C081E090E001110196112331F01E
:1011D000212F30E02F5F3F4F820F931F252D30E0EE
:1011E0008217930714F4581A01C0512C892D897065
:1011F00049F4552039F0B70180E290E00E94640C78
:101200005A94F7CF002329F0B701802F90E00E9475
:10121000640C93FC09C0552039F0B70180E390E0DD
:101220000E94640C5A94F7CF97FE4CC04601D7FE3B
:1012300002C0812C912CC60188199909F301E80F8D
:10124000F91FFE87ED87960124193109388B2F8706
:10125000012F10E01195019511093FEF83169306B8
:1012600029F4B7018EE290E00E94640CC814D904FE
:101270004CF08F8598898815990524F4ED85FE85B5
:10128000818101C080E3F1E08F1A91082D853E85B0
:101290002F5F3F4F3E872D87801691062CF0B701B8
:1012A00090E00E94640CD9CFC814D90441F49A810B
:1012B000963320F4953319F43C8534FF81E3B7016C
:1012C00090E04EC08A81813319F09C859F7E9C8777
:1012D000B70190E00E94640C111105C094FC18C085
:1012E00085E690E017C0B7018EE290E00E94640CA2
:1012F0001E5F82E001E0080FF301E80FF11D80811D
:10130000B70190E00E94640C802F0113F3CFE6CF69
:1013100085E490E0B7010E94640CD7FC06C0C114BC
:10132000D10441F4EC85E4FF05C0D194C194D10807
:101330008DE201C08BE2B70190E00E94640C80E373
:101340002AE0C216D1042CF08F5FFAE0CF1AD10840
:10135000F7CFB70190E00E94640CB701C601C096B8
:101360000E94640C54C1833631F0833779F08335A1
:1013700009F056C020C0560132E0A30EB11CF601A0
:101380008081898301E010E0630112C05601F2E020
:10139000AF0EB11CF601C080D18096FE03C0612F54
:1013A00070E002C06FEF7FEFC6010E94590C8C0104
:1013B000F92DFF7714C0560122E0A20EB11CF601F0
:1013C000C080D18096FE03C0612F70E002C06FEF35
:1013D0007FEFC6010E944E0C8C01F92DF0689F2E04
:1013E000F3FD1AC0852D90E008171907A8F4B7017E
:1013F00080E290E00E94640C5A94F4CFF60197FCCE
:10140000859197FE81916F01B70190E00E94640C75
:1014100051105A94015011090115110579F7F7C0BF
:10142000843611F0893661F5560197FE09C024E033
:10143000A20EB11CF60160817181828193810AC084
:10144000F2E0AF0EB11CF60160817181072E000C35
:10145000880B990BF92DFF769F2E97FF09C0909569
:101460008095709561957F4F8F4F9F4FF0689F2EAD
:101470002AE030E0A3010E94C20CC82EC6183FC06B
:10148000092D853721F40F7E2AE030E01DC0097F49
:101490008F3691F018F4883559F0C3C0803719F0B1
:1014A000883711F0BEC0006104FF09C0046007C0A6
:1014B00094FE08C0066006C028E030E005C020E1C8
:1014C00030E002C020E132E0560107FF09C084E0AD
:1014D000A80EB11CF601608171818281938108C0E0
:1014E000F2E0AF0EB11CF6016081718180E090E006
:1014F000A3010E94C20CC82EC6180F77902E96FE2C
:101500000BC0092D0E7FC11650F494FE0AC092FC48
:1015100008C0092D0E7E05C0DC2C092D03C0DC2C73
:1015200001C0D12E04FF0DC0FE01EC0DF11D808124
:10153000803311F4097E09C002FF06C0D394D3940E
:1015400004C0802F867809F0D39403FD11C000FFFA
:1015500006C01C2DD51480F4150D1D190DC0D51411
:1015600058F4B70180E290E00E94640CD394F7CF66
:10157000D51410F45D1801C0512C04FF10C0B70140
:1015800080E390E00E94640C02FF17C001FD03C0DD
:1015900088E790E002C088E590E0B7010CC0802F9A
:1015A000867859F001FF02C08BE201C080E207FD9E
:1015B0008DE2B70190E00E94640CC11638F4B701C7
:1015C00080E390E00E94640C1150F7CFCA94F301BD
:1015D000EC0DF11D8081B70190E00E94640CC110F8
:1015E000F5CF15C0F4E0F51560F584E0581A93FEC8
:1015F0001FC0011127C02C8523FF2AC008E610E078
:10160000392D3071932EF8018491811124C0552019
:1016100009F4E4CCB70180E290E00E94640C5A9493
:10162000F6CFF7018681978126C08FEF9FEF23C009
:10163000B70180E290E00E94640C5A945110F8CFF8
:10164000D8CF512CB701802F90E00E94640CD3CFEB
:101650000CE610E0D5CF91108052B70190E00E94C7
:10166000640C0F5F1F4FCFCF23E0251510F483E0EC
:10167000BDCF512CC0CF6096E2E10C945B0B2F9252
:101680003F924F925F926F927F928F929F92AF9212
:10169000BF92CF92DF92EF92FF920F931F93CF935F
:1016A000DF93CDB7DEB7CA1BDB0B0FB6F894DEBFF6
:1016B0000FBECDBF09942A88398848885F846E841C
:1016C0007D848C849B84AA84B984C884DF80EE8066
:1016D000FD800C811B81AA81B981CE0FD11D0FB66F
:1016E000F894DEBF0FBECDBFED010895283008F09D
:1016F00027E03327DA01990F311D87FD91600096AD
:101700006105710539F432602E5F3D9330E32A950F
:10171000E1F708959F3F30F080387105610509F0C9
:101720003C5F3C5F3D93913008F08068911DDF93F2
:10173000CF931F930F93FF92EF92192F987F969557
:10174000E92F96959695E90FFF27E653FF4F9927C6
:101750003327EE24FF24A701E7010590089407949E
:1017600028F4360FE71EF81E491F511D660F771F1C
:10177000881F991F0694A1F70590079428F4E70E97
:10178000F81E491F561FC11D770F881F991F661F1E
:101790000694A1F70590079428F4F80E491F561FE8
:1017A000C71FD11D880F991F661F771F0694A1F7C9
:1017B0000590079420F4490F561FC71FD81F990F93
:1017C000661F771F881F0694A9F7849110951770DC
:1017D00041F0D695C79557954795F794E7941A9594
:1017E000C1F7E0E7F0E068941590159135916591A7
:1017F000959105907FE27395E118F10A430B560B22
:10180000C90BD009C0F7E10CF11E431F561FC91FB9
:10181000D01D7EF4703311F48A95E6CFE894015020
:1018200030F0080F0AF40027021708F4202F239540
:10183000022F7A3328F079E37D932A95E9F710C0D7
:101840007D932A9589F60694979567953795179510
:101850001794E118F10A430B560BC90BD00998F005
:1018600023957E9173957A3308F070E37C9320136F
:10187000B8F77E9170617D9330F0839571E37D932D
:1018800070E32A95E1F71124EF90FF900F911F91DB
:10189000CF91DF91992787FD90950895FC010590E0
:1018A000615070400110D8F7809590958E0F9F1F62
:1018B0000895FC016150704001900110D8F78095A7
:1018C00090958E0F9F1F08950F931F93CF93DF93D3
:1018D000FB01238121FD03C08FEF9FEF2CC022FF6E
:1018E00016C046815781248135814217530744F43D
:1018F000A081B1819D012F5F3F4F318320838C9365
:10190000268137812F5F3F4F3783268314C08B0199
:10191000EC01FB010084F185E02D0995892BE1F6AE
:10192000D80116968D919C911797019617969C93C6
:101930008E931697CE01DF91CF911F910F9108954D
:10194000AEE0B0E0E6EAFCE00C944D0B0D891E8998
:1019500086E08C831A8309838FEF9FE79E838D83B4
:10196000AE01475E5F4F6F89788DCE0101960E9470
:10197000C207EF81F885E00FF11F10822E96E4E098
:101980000C94690BFA01AA27283051F1203181F11A
:10199000E8946F936E7F6E5F7F4F8F4F9F4FAF4F77
:1019A000B1E03ED0B4E03CD0670F781F891F9A1F8A
:1019B000A11D680F791F8A1F911DA11D6A0F711D3E
:1019C000811D911DA11D20D009F468943F912AE04A
:1019D000269F11243019305D3193DEF6CF01089532
:1019E000462F4770405D4193B3E00FD0C9F7F6CF63
:1019F000462F4F70405D4A3318F0495D31FD40522B
:101A0000419302D0A9F7EACFB4E0A69597958795C0
:101A100077956795BA95C9F700976105710508959F
:101A20009B01AC010A2E069457954795379527954B
:101A3000BA95C9F7620F731F841F951FA01D0895E3
:041A4000F894FFCF48
:101A44000100010001000100010001000100494EF4
:101A54005445524D4954454E004D4F444F3A20256C
:101A640073004E4F524D414C2020202000543A2008
:101A7400252E3166207320493A202564252520002F
:00000001FF
