:100000000C9434000C943E000C943E000C943E0082
:100010000C943E000C943E000C943E000C943E0068
:100020000C943E000C943E000C943E000C943E0058
:100030000C943E000C943E000C943E000C943E0048
:100040000C943E000C943E000C943E000C943E0038
:100050000C943E000C943E000C943E000C943E0028
:100060000C943E000C943E0011241FBECFEFD8E04C
:10007000DEBFCDBF0E944C000C9451000C940000D8
:100080008FEF8AB9089583E284BD8BE085BD82E558
:1000900087BD89E288BD08950E9443000E94400008
:0600A000FFCFF894FFCF32
:00000001FF
